:020000040800F2
:1000000050040020450100082515000827150008A8
:100010002B1500082F1500083315000800000000FC
:10002000000000000000000000000000371500087C
:1000300039150008000000003B1500083D150008B8
:100040005F0100085F0100085F0100085F01000810
:100050005F0100085F0100085F0100085F01000800
:100060005F0100085F0100085F0100085F010008F0
:100070005F0100085F0100085F0100085F010008E0
:100080005F0100085F0100085F0100085F010008D0
:100090005F0100085F0100085F0100085F010008C0
:1000A0005F0100085F0100085F0100085F010008B0
:1000B0005F0100085F0100085F0100085F010008A0
:1000C0005F0100085F0100085F0100085F01000890
:1000D0005F0100085F0100085F0100085F01000880
:1000E0005F0100085F0100085F0100085F01000870
:1000F0005F0100085F0100085F0100085F01000860
:100100005F0100085F0100085F0100085F0100084F
:100110005F0100085F0100085F0100085F0100083F
:100120005F0100085F0100085F0100085F0100082F
:10013000DFF80CD001F06AFF004800478712000882
:10014000500400200648804706480047FEE7FEE7C7
:10015000FEE7FEE7FEE7FEE7FEE7FEE7FEE7FEE777
:1001600047020008310100080CB500200190009002
:100170006C48006840F480306A49086000BF6948F4
:10018000006800F4003000900198401C0190009835
:1001900018B90198B0F5A06FF1D16248006800F479
:1001A000003010B10120009001E000200090009884
:1001B000012843D15C48006840F010005A490860AB
:1001C0000846006820F0030008600846006840F018
:1001D0000200086053484068524948600846406839
:1001E00048600846406840F48060486008464068BF
:1001F00020F47C1048600846406840F4E8104860ED
:100200000846006840F08070086000BF45480068FC
:1002100000F000700028F9D04248406820F0030048
:10022000404948600846406840F00200486000BF0E
:100230003C48406800F00C000828F9D10CBD10B50E
:10024000FFF792FF10BD10B53648006840F001007E
:1002500034490860084640683449084031494860DC
:1002600008460068324908402E4908600846006880
:1002700020F4802008600846406820F4FE004860B2
:100280004FF41F008860FFF7DAFF4FF00060294944
:10029000086010BD10B5002100200022214B5B68D2
:1002A00003F00C0121B1042906D0082928D107E068
:1002B000214B224C236027E01F4B204C236023E07E
:1002C000184B5B6803F47010164B5B6803F48032C4
:1002D000022303EB904022B9194B4343174C236090
:1002E0000DE0104B5B6803F4003323B1144B434320
:1002F000124C236003E0104B4343104C236003E097
:100300000D4B0E4C236000BF00BF064B5B68C3F370
:1003100003130C4CE15C094B1B68CB40074C23607A
:1003200010BD000000100240002002400000FFF855
:10033000FFFFF6FE08ED00E000127A00000000204A
:1003400000093D000400002031490143314A116099
:10035000704770B5002100230F22C47804B32D4CE0
:10036000246804F4E064C4F5E064210AC1F10403E4
:10037000CA40447804FA03F1847814402143090107
:10038000254C0678A155047804F01F050124AC40E3
:1003900005786D11AD0005F1E025C5F8004109E0D3
:1003A000047804F01F050124AC401C4D067876113A
:1003B00045F8264070BD1A4A0A400243154B1B1FE0
:1003C0001A60704739B1134A121D12680243114B6B
:1003D0001B1D1A6006E00F4A121D126882430D4B66
:1003E0001B1D1A607047042808D14FF0E0210969ED
:1003F00041F004014FF0E022116107E04FF0E021ED
:10040000096921F004014FF0E022116170470000FA
:100410000000FA050CED00E000E400E080E100E0FF
:1004200080FFFF1F10B50446FA48844208D101211D
:10043000401500F07FFE0021601500F07BFE17E004
:10044000F548844208D10121001500F073FE002117
:10045000201500F06FFE0BE0F048844208D1012126
:10046000C80300F067FE00214FF4004000F062FE78
:1004700010BD30B50246002000235068E84C2040F3
:100480000D790C6844EA0524204350609068E54CDF
:100490002040D1E902542C434D7944EA45042043DD
:1004A0009060D06A20F470000C7C641EE4B2234398
:1004B00040EA0350D06230BD0021016001714171FA
:1004C0008160C16001210174704721B1826842F0EE
:1004D0000102826003E0826822F0010282607047BC
:1004E00021B1826842F48072826003E0826822F463
:1004F00080728260704710B50023CBB21AB1446895
:100500001C43446002E044689C43446010BD816821
:1005100041F0080181607047014600208A6802F0BE
:1005200008020AB1012000E000207047816841F014
:10053000040181607047014600208A6802F00402CD
:100540000AB1012000E00020704721B1826842F426
:10055000A002826003E0826822F4A00282607047F9
:10056000014600208A6802F480020AB1012000E0FE
:100570000020704710B50A4600210023416821F48D
:100580006041531E41EA4331416010BD21B14268D0
:1005900042F40062426003E0426822F4006242607A
:1005A0007047F0B504460D4600200021092D11DDED
:1005B000E068A5F10A0606EB4607072606FA07F1EA
:1005C0008843A5F10A0606EB460603FA06F108433E
:1005D000E0600CE0206905EB4507072606FA07F105
:1005E000884305EB450603FA06F108432061072A14
:1005F0000FDA606B561E06EB86071F2606FA07F118
:100600008843561E06EB860605FA06F1084360632A
:1006100022E00D2A0FDA206BD61F06EB86071F2675
:1006200006FA07F18843D61F06EB860605FA06F19F
:100630000843206310E0E06AA2F10D0606EB86078E
:100640001F2606FA07F18843A2F10D0606EB86067F
:1006500005FA06F10843E062F0BD21B1826842F478
:100660008012826003E0826822F480128260704708
:100670000146C86C80B2704766484C3000687047CD
:1006800021B1426842F48062426003E0426822F491
:1006900080624260704721B1426842F480524260F9
:1006A00003E0426822F48052426070470A4600210B
:1006B000816821F4E04111438160704721B1826873
:1006C00042F40042826003E0826822F400428260C9
:1006D000704721B1826842F40212826003E08268AE
:1006E00022F4021282607047014600208A6802F4F8
:1006F00000120AB1012000E000207047F0B5044666
:100700001546002000220026092911DDE068A1F12C
:100710000A0707EB470C072707FA0CF29043A1F1F1
:100720000A0707EB470703FA07F21043E0600CE003
:10073000206901EB410C072707FA0CF2904301EB0B
:10074000410703FA07F210432061A06BC0F3015682
:10075000EF1C06F1010CA7EB0C0707EB870C1F271A
:1007600007FA0CF29043EF1C06F1010CA7EB0C0703
:1007700007EB870701FA07F21043A063F0BD10B53D
:100780000A4600210023816B21F44011531E41EAE7
:100790000351816310BD08B5002300930090009BB6
:1007A0000B440093009B1A6008BD08B50246002068
:1007B0000090009201F12800009B184400900098DE
:1007C000006880B208BD0A4600214168164B1940F6
:1007D0001143416070474162826270470A460021BE
:1007E000416821F01F0111434160704740B1094940
:1007F0000831096841F40001064A0832116007E037
:1008000004490831096821F40001024A08321160E4
:10081000704700000024014000280140003C0140D6
:10082000FFFEF0FFFDF7F1FFFFFD3FFF0246002056
:1008300013680B400BB1012000E000207047CA4351
:100840000260704770B502460020002300240B129E
:100850005568CEB205EA060415681D4015B10CB105
:10086000012000E0002070BD00220A12D343036083
:100870007047000001684FF6FE72114001600021D0
:10088000016041608160C1608D49884208D18C4916
:100890000839496841F00F01894A083A51608AE0F5
:1008A00087491431884208D185490839496841F09F
:1008B000F001834A083A51607DE08149283188423D
:1008C00008D17F490839496841F470617C4A083A87
:1008D000516070E07A493C31884208D17849083942
:1008E000496841F47041764A083A516063E07449BE
:1008F0005031884208D172490839496841F4702161
:100900006F4A083A516056E06D496431884208D117
:100910006B490839496841F47001694A083A5160E5
:1009200049E067497831884208D165490839496802
:1009300041F07061624A083A51603CE06149884286
:1009400006D1011F096841F00F01021F116032E05A
:100950005C491431884208D15A49091F096841F09D
:10096000F001584A121F116025E05649283188428B
:1009700008D15449091F096841F47061514A121F96
:10098000116018E04F493C31884208D14D49091F98
:10099000096841F470414B4A121F11600BE049494C
:1009A0005031884207D14749091F096841F4702135
:1009B000444A121F1160704710B50022026847F6C2
:1009C000F0739A430C6A8B6823430C6923434C6988
:1009D00023438C692343CC6923434C6A23438C6AA9
:1009E00023431A430260CB6843600B6883604B6803
:1009F000C36010BD0021016041608160C160016180
:100A000041618161C161016241628162704721B1CE
:100A1000026842F00102026004E002684FF6FE73D1
:100A20001A40026070471AB103680B43036002E08A
:100A300003688B4303607047416070470146486814
:100A400080B2704701460020002201F080531BB1A4
:100A50001C4B083B1A6802E0194B083B1A6802EA73
:100A600001030BB1012000E00020704700F080512D
:100A700019B11449091F086002E01149083948609A
:100A8000704701460020002201F080531BB10D4B3E
:100A9000083B1A6802E00A4B083B1A6802EA0103A5
:100AA0000BB1012000E00020704700F0805119B127
:100AB0000449091F086002E001490839486070478D
:100AC000080002400804024010B50446CC488442A5
:100AD00008D10121042000F02DFB0021042000F0AA
:100AE00029FB46E0C748844208D10121082000F0D4
:100AF00021FB0021082000F01DFB3AE0C24884429F
:100B000008D10121102000F015FB0021102000F079
:100B100011FB2EE0BD48844208D10121202000F0C5
:100B200009FB0021202000F005FB22E0B8488442A8
:100B300008D10121402000F0FDFA0021402000F002
:100B4000F9FA16E0B348844208D10121802000F070
:100B5000F1FA0021802000F0EDFA0AE0AE4884426C
:100B600007D10121801500F0E5FA0021A01500F061
:100B7000E1FA10BD10B50121084600F0DBFA0021B2
:100B8000012000F0D7FA10BD2DE9F0410246002502
:100B90000026002000230024002791F803C00CF059
:100BA0000F0591F803C00CF0100CBCF1000F03D03E
:100BB00091F802C04CEA050591F800C0BCF1000FA5
:100BC00031D0146800202BE04FF0010C0CFA00F338
:100BD000B1F800C00CEA03069E4220D183004FF01A
:100BE0000F0C0CFA03F7BC4305FA03FC4CEA0404AF
:100BF00091F803C0BCF1280F06D14FF0010C0CFA9C
:100C000000FCC2F814C00AE091F803C0BCF1480F20
:100C100005D14FF0010C0CFA00FCC2F810C0401CCA
:100C20000828D1D31460B1F800C0BCF1FF0F34DD47
:100C3000546800202EE000F1080C4FF0010808FA7B
:100C40000CF3B1F800C00CEA03069E4221D18300E8
:100C50004FF00F0C0CFA03F7BC4305FA03FC4CEA07
:100C6000040491F803C0BCF1280F05D100F1080C71
:100C700008FA0CF8C2F8148091F803C0BCF1480FD0
:100C800007D100F1080C4FF0010808FA0CF8C2F87F
:100C90001080401C0828CED35460BDE8F0814FF688
:100CA000FF710180022181700421C17070470246EA
:100CB000002093680B400BB1012000E0002070473A
:100CC0000146886880B2704702460020D3680B4016
:100CD0000BB1012000E0002070470146C86880B2D7
:100CE000704701617047416170470AB1016100E0DE
:100CF00041617047C16070474FF480320A4382619E
:100D00008161826182698269704702460020434B9B
:100D100018684FF68073184040EA021008433F4BB2
:100D2000186070473E49C8617047F0B50A46002315
:100D300000240021002500F00046B6F1004F02D14A
:100D4000364EF16901E0354E7168C0F3034583B258
:100D500000F44016B6F5401F08D121F070612F4E07
:100D6000766826F070662D4F7E6012E000F48016E3
:100D7000B6F5801F06D1032606FA05F4A14341F01B
:100D8000706106E0460D360103FA06F6B14341F004
:100D9000706122B1460D360103FA06F6314300F0C8
:100DA0000046B6F1004F02D11C4EF16101E01B4E2E
:100DB0007160F0BD30B500228B071C0F0F2303FAC2
:100DC00004F2164B08338C1053F824309343134C21
:100DD00008348D1044F8253023468C1053F8243005
:100DE0008C07240F00FA04F423430C4C08348D10B4
:100DF00044F8253030BD0A49DC31086070470000F6
:100E000000080140000C01400010014000140140A6
:100E100000180140001C014000200140000001407A
:100E200000002042DF48006840F00100DD49086012
:100E300008464068DC490840DA49486008460068CE
:100E4000DA490840D74908600846006820F4802045
:100E500008600846406820F4FE0048604FF41F0018
:100E600088607047CF49096821F48031CD4A11600C
:100E70001146096821F480211160B0F5803F03D04C
:100E8000B0F5802F0ED106E0C649096841F48031E3
:100E9000C44A116007E0C349096841F4A021C14A6E
:100EA000116000E000BF00BF704710B5014600228E
:100EB000002300204A11012A02D1BA4C236806E01F
:100EC000022A02D1B74C236A01E0B64C636A01F0F2
:100ED0001F02012494401C400CB1012000E00020BE
:100EE00010BD38B5002000900024002500BF31203F
:100EF000FFF7DBFF05460098401C00900098B0F516
:100F0000A06F01D0002DF2D03120FFF7CEFF08B145
:100F1000012400E00024204638BD01460020A14AFB
:100F2000106820F0F80040EAC10010607047A04946
:100F300008607047024600209A4B586820F47C10E5
:100F400042EA01031843974B586070479849086676
:100F5000704701460020934A506820F00300084380
:100F6000506070478F48406800F00C0070470146A1
:100F700000208C4A506820F0F00008435060704711
:100F800001460020874A506820F4E0600843506022
:100F9000704701460020834A506820F4605040EAC0
:100FA000C1005060704729B17E4A527A02437D4B9E
:100FB0005A7204E07B4A527A82437A4B5A727047E3
:100FC0007B49D8310860704701460020754A506857
:100FD00020F440400843506070470021714A20329D
:100FE0001170704A82F82010012802D004280AD11A
:100FF00004E001216B4A2032117005E00521694AA5
:101000002032117000E000BF00BF704769490860DE
:1010100070476449096A0143624A11627047654931
:1010200044390860704730B50021002200240023B5
:101030005C4D6D6805F00C0121B1042905D008292B
:1010400023D105E05C4D056022E05B4D05601FE0AB
:10105000544D6D6805F47012524D6D6805F480347E
:10106000022505EB92421CB9544D554305600BE037
:101070004C4D6D6805F400351DB1504D554305606C
:1010800002E04D4D5543056002E04B4D056000BF49
:1010900000BF444D6D6805F0F0010909484D6B5CD7
:1010A0000568DD4045603F4D6D6805F4E061090A63
:1010B000434D6B5C4568DD4085603A4D6D6805F4D5
:1010C0006051C90A3E4D6B5C4568DD40C560354DD9
:1010D0006D6805F44041890B3A4D6B5CC568B5FB02
:1010E000F3F5056130BD29B12E4A526902432D4BFB
:1010F0005A6104E02B4A526982432A4B5A61704775
:1011000029B1284A92690243264B9A6104E0254A94
:1011100092698243234B9A61704729B1214AD2696F
:101120000243204BDA6104E01E4AD26982431D4B20
:10113000DA61704729B11B4AD2680243194BDA6061
:1011400004E0184AD2688243164BDA60704729B12E
:10115000144A12690243134B1A6104E0114A1269DE
:101160008243104B1A61704712494039086070473A
:101170000F49C86470470B49C87170470948406AF5
:1011800040F0807007494862704701460020054AD8
:1011900092680A400AB1012000E00020704701492E
:1011A00088727047001002400000FFF8FFFFF6FE53
:1011B000000042428004424200127A0000093D00D1
:1011C000140000202400002001B502E00098401E19
:1011D000009000980028F9D108BD2DE9FE4F044683
:1011E0000D469146BAA2D2E900109268CDE90102FB
:1011F00000914FF0000AB949484600F02BFD074620
:1012000000F00FFE8246484600F024FE0746B44A2E
:10121000B44B00F033FE2FD2B349484600F01AFD1C
:10122000074600F0FEFD06460A209AFBF0F100FB9F
:1012300011A0042800DD761C0A2096FBF0F01DF8B2
:101240000070E9B2E0B23A4600F032FAE9B204F1D5
:101250000802D0B2002200F052FA0A2096FBF0F108
:1012600000FB11601DF80070E9B204F10B02D0B26E
:101270003A4600F01DFA04E0E9B2E0B2302200F094
:1012800017FABDE8FE8F00F0C9FB00F059F900F035
:101290002CFB00F0D1FC00F0EBF917E1042093499E
:1012A00008609349088800F0B7FD83464FF08B41F2
:1012B00000F002FD824600F0CDFD06464FF066329A
:1012C0008C4B00F037FD044600224FF0804300F0C5
:1012D00031FD804600F0EAFD87490860844988882E
:1012E00000F09AFD83464FF08B4100F0E5FC82460A
:1012F00000F0B0FD80464FF066327E4B00F01AFDE4
:10130000064600224FF0804300F014FD044600F032
:10131000CDFD794988607649C88800F07DFD834617
:101320004FF08B4100F0C8FC824600F093FD8046F0
:101330004FF066326F4B00F0FDFC064600224FF086
:10134000804300F0F7FC044600F0B0FD6A49C86035
:101350006749088900F060FD83464FF08B4100F03B
:10136000ABFC824600F076FD06464FF06632614BDC
:1013700000F0E0FC044600224FF0804300F0DAFC6D
:10138000804600F093FD5C4908615949488900F0A6
:1013900043FD83464FF08B4100F08EFC824600F007
:1013A00059FD80464FF06632524B00F0C3FC0646B2
:1013B00000224FF0804300F0BDFC044600F076FDB3
:1013C0004D494861642000F066FB00221146202050
:1013D00000F01FFA01220021302000F01AFA022248
:1013E0000021402000F015FA03220021502000F0D7
:1013F00010FA42A20221002000F0F0F9012202219D
:10140000202000F07CF93C48022102682420FFF7EC
:10141000E4FE022211463C2000F071F939A20221BB
:10142000482000F0DBF901220221682000F067F972
:101430003148022182686C20FFF7CFFE022203218F
:101440003C2000F05CF931A20421002000F0C6F934
:1014500001220421202000F052F927480421C2680B
:101460002420FFF7BAFE022204213C2000F047F9B5
:1014700028A20421482000F0B1F9012204216820AB
:1014800000F03DF91C48042102696C20FFF7A5FE1D
:10149000022205213C2000F032F920A20621002082
:1014A00000F09CF901220621202000F028F91248C2
:1014B000062142692420FFF790FE022206213C20EB
:1014C00000F01DF904200949091F0860E6E6000044
:1014D0003031323334353637383900000000C842F5
:1014E0009A9999999999C93F000020411414014093
:1014F0004400002066660A402C0000202B357664EC
:10150000000000002D35767A000000002B31327685
:10151000000000002D357662000000002B3576615A
:1015200000000000704700BFFEE700BFFEE700BFFD
:10153000FEE700BFFEE77047704770477047000046
:1015400008B501212420FFF7DBFD0420ADF80000E1
:1015500010208DF8030003208DF8020069460A4828
:10156000FFF712FB4FF48070ADF8000069460748A2
:10157000FFF70AFB04210448FFF7B3FB4FF4807127
:101580000248FFF7AEFB08BD00140140000801400F
:1015900070B504460E462EB14FF40071FE48FFF7B9
:1015A000A0FB04E04FF40071FB48FFF79CFB802197
:1015B000F948FFF798FB00251BE04FF48061F648DF
:1015C000FFF791FB04F0800028B14FF40061F2486E
:1015D000FFF787FB04E04FF40061EF48FFF783FB60
:1015E0004FF48061EC48FFF77CFB6006040E681C3A
:1015F000C5B2082DE1DB8021E748FFF772FB4FF40D
:101600000071E548FFF76DFB70BD70B504460D46EF
:1016100005F1B001C8B20021FFF7BAFF102141EA7D
:1016200014100021FFF7B4FF04F00F0141F0010096
:101630000021FFF7ADFF70BD10B500218D20FFF731
:10164000A7FF00211420FFF7A3FF0021AF20FFF721
:101650009FFF10BD10B500218D20FFF799FF0021DD
:101660001020FFF795FF0021AE20FFF791FF10BD7E
:1016700070B5002419E004F1B001C8B20021FFF7F1
:1016800087FF00210846FFF783FF00211020FFF7A6
:101690007FFF002505E001210020FFF779FF681C8E
:1016A000C5B2802DF7DB601CC4B2082CE3DB70BD33
:1016B0002DE9F04106460C4617464FF0000800257C
:1016C000A7F1200000F0FF087F2E02DD0026A01CFD
:1016D000C4B2601CC1B23046FFF797FF00250AE094
:1016E00008EB4801AD4A02EB4101485D0121FFF7DB
:1016F0004FFF681CC5B2062DF2DBBDE8F0812DE975
:10170000F04106460C4617464FF000080025B84643
:101710007F2E02DD0026A01CC4B2601CC1B2304680
:10172000FFF773FF002508E09D4901EB4801485D84
:101730000121FFF72DFF681CC5B2022DF4DBBDE8C7
:10174000F08110B50246012000E050430B00A1F1EA
:101750000104E1B2F9D110BD2DE9FF5F07469146C2
:101760001D460E9E4FF0000A002433E0281B401E49
:10177000C1B20A20FFF7E5FFB9FBF0F00A21B0FB88
:10178000F1F201FB1208BAF1000F13D1681EA0425A
:1017900010DDB8F1000F0BD1B34606EBDB71491039
:1017A00001FB0471C8B220220199FFF781FF0FE00D
:1017B0004FF0010AB34606EBDB71491001FB0471DF
:1017C000C8B208F13001CAB20199FFF771FF00BF3A
:1017D000601CC4B2AC42C9DBBDE8FF9F2DE9F041FB
:1017E00004460F46154600260EE0AA5D39462046FF
:1017F000FFF75EFF04F10800C4B2782C02DD00247C
:10180000B81CC7B2701CC6B2A85D0028EDD1BDE8F7
:10181000F0812DE9F04180460E46154600273146FD
:101820004046FFF7F2FE00240AE05E4A02EB851113
:10183000085D0121FFF7ACFE781CC7B2601CC4B282
:10184000102CF2DB701CC1B24046FFF7DEFE002414
:101850000CE06900491C534A02EB4111085D01216B
:10186000FFF796FE781CC7B2601CC4B2102CF0DBE8
:10187000BDE8F0812DE9F05F06460F4690461C4614
:10188000DDF828A04FF0000BE11704EB5171C910EF
:10189000A4EBC10131B92046E11704EB5171C1F34A
:1018A000C70506E02046E11704EB5171C910491C39
:1018B000CDB23D4615E029463046FFF7A6FEB146BB
:1018C0000BE059460BF1010B1AF801000121FFF75B
:1018D0005FFE09F1010000F0FF09C145F1DB681C62
:1018E000C5B2A542E7DBBDE8F09F08B5012138206D
:1018F000FFF706FC4FF47860ADF8000010208DF87B
:10190000030003208DF8020069462348FFF73CF9E5
:101910004FF478612048FFF7E4F94FF480711E48D6
:10192000FFF7DFF9642000F0B6F84FF480711A4831
:10193000FFF7D9F9642000F0AEF84FF48071164833
:10194000FFF7CFF90021FD20FFF722FE0021122032
:10195000FFF71EFE0021AE20FFF71AFE0021D52062
:10196000FFF716FE0021A020FFF712FE0021A8209D
:10197000FFF70EFE00213F20FFF70AFE0021D320D3
:10198000FFF706FE00210846FFF702FE0021402077
:10199000FFF7FEFD002107E0001001408C20000849
:1019A000A4290008A4280008A120FFF7F1FD0021C8
:1019B000C820FFF7EDFD0021DA20FFF7E9FD002147
:1019C0001220FFF7E5FD00218120FFF7E1FD002156
:1019D000FF20FFF7DDFD0021D920FFF7D9FD002111
:1019E0008220FFF7D5FD0021DB20FFF7D1FD00218C
:1019F0003420FFF7CDFD0021A420FFF7C9FD002111
:101A0000A620FFF7C5FD0021AF20FFF7C1FDFFF7BE
:101A10002FFE00210846FFF7F8FD08BD10B56FF056
:101A20000400FEF7E0FC2E4800682E49B0FBF1F000
:101A30002D4908700846007800EB4001C1EBC0104A
:101A40004FF6FF7101EAC0002849088010BD014629
:101A5000254A12784A434FF0E0235A6100229A61E6
:101A60001A46126942F001021A6100BF4FF0E022EB
:101A7000106900F001021AB100F48032002AF5D09A
:101A80004FF0E022126922F001024FF0E0231A61C8
:101A900000229A6170470146144A12884A434FF067
:101AA000E0235A6100229A611A46126942F001024B
:101AB0001A6100BF4FF0E022106900F001021AB174
:101AC00000F48032002AF5D04FF0E022126922F0B3
:101AD00001024FF0E0231A6100229A617047000072
:101AE0000000002000127A00280000202A000020B8
:101AF00008B501211820FFF703FB3F20ADF80000D7
:101B000000208DF8030069464E48FFF73DF808BDF8
:101B100000B591B001210846FFF7E5FA012148021E
:101B2000FFF7EEFA4848FEF7A5FE484806904848F9
:101B30000790002008900620099000200A9080203D
:101B40000B9040000C9080000D9020200E90000221
:101B50000F900020109006A93B48FEF72DFF0121B1
:101B60003948FEF754FF0020019001208DF808004D
:101B70008DF809004FF460200390002004900620A7
:101B80008DF8140001A931484C38FEF772FC4FF46F
:101B90004040FFF719FA052301220A212B484C384F
:101BA000FEF7FFFC052302220B2128484C38FEF7E4
:101BB000F8FC052303220C2124484C38FEF7F1FCE5
:101BC000052304220D2121484C38FEF7EAFC0523A9
:101BD0001A460E211D484C38FEF7E3FC0523062269
:101BE0000F211A484C38FEF7DCFC012117484C380D
:101BF000FEF776FC012115484C38FEF766FC1348C9
:101C00004C38FEF784FC00BF10484C38FEF784FCCB
:101C10000028F9D10D484C38FEF788FC00BF0B486E
:101C20004C38FEF788FC0028F9D1012107484C38D0
:101C3000FEF78BFC11B000BD10B5FFF759FFFFF7A1
:101C400067FF10BD00100140080002404C24014015
:101C50004400002080EA010210B502F00043400079
:101C600022D04A001FD0010E01EB1261C0F35600D2
:101C7000C2F3560240F4000042F40002A0FB02202E
:101C800000047F39140400D0401C50EA124001D4F3
:101C90004000491EC2B20C0604EBD010401C4008A4
:101CA000802A02D003E0002010BD20F001000029AE
:101CB00000DA0020184310BD30B480EA010202F0BF
:101CC000004530F0004221F0004013D090B1C30D28
:101CD000D40DC2F31601C0F31600E41A41F400015A
:101CE00040F400027D34914201D3641C00E04900BD
:101CF000002C02DA30BC002070474FF400000023B3
:101D0000914201D3891A034340084FEA4101F7D1B8
:101D100051B1914202D14FF0004105E002D24FF0A3
:101D2000010101E06FF0010103EBC450284430BC15
:101D300000F0D8B82DE9FE4F81EA030404F0004416
:101D400021F0004100944FF0000B23F0004350EAD3
:101D500001045ED052EA03045BD0C3F30A54C1F31A
:101D60000A552C44A4F2F3340194A0FB0254C1F3AD
:101D7000130141F48011C3F3130343F4801301FBF7
:101D8000024400FB034E840A970A44EA815447EA5E
:101D90008357A4FB076802958D0A05FB07854FEA68
:101DA000932C04FB0C542705029D4FEA065847EA82
:101DB0001637B5EB08056EEB070C870E920E47EA57
:101DC000811742EA8312A7FB0201B6EB0B0164EB19
:101DD00000042B0D43EA0C335E1844EB1C50DA462A
:101DE0005146E7FB0201C5F313044FEA0B3343EA04
:101DF00014534FEA0432019C43EA0603A4F10C0495
:101E00000294009CCDE900B400F0B2F803B0BDE844
:101E1000F08F00200146F9E796230022114600F0DA
:101E20006AB800F0004220F00040C10DC0F3160077
:101E300040F400007F2901DA00207047962903DC76
:101E4000C1F19601C84001E096398840002AF4D0DB
:101E50004042704700F0004230F000400AD0C10D0F
:101E600001F56071C0F3160042EA0151C208400753
:101E700011437047002001467047000030B5041E32
:101E800071F1000404DB4FF00044404264EB0101B7
:101E9000141E73F1000405DB1C464FF00043524250
:101EA00063EB0403994208BF904230BD01F0004348
:101EB00030B421F0004150EA010206D00A0DA2F52B
:101EC0006072C1F31301002A02DC30BC00207047AD
:101ED000440F44EAC104C100E01830BC00EBC2501A
:101EE000AFF300800029A8BF7047401C490008BF1D
:101EF00020F00100704710B4B0FA80FC00FA0CF03A
:101F000050EA010404BF10BC704749B1CCF1200471
:101F100021FA04F411FA0CF118BF012121430843FE
:101F2000A3EB0C01CB1D4FEA00614FEA102042BF2A
:101F3000002010BC704700EBC35010440029A4BF20
:101F400010BC7047401C490008BF20F0010010BCC5
:101F5000704710B5141E73F1000408DA401C41F1FB
:101F6000000192185B411A4301D120F0010010BD1D
:101F70002DE9F04D92469B4611B1B1FA81F202E093
:101F8000B0FA80F22032904600F052F804460F4634
:101F900040EA0A0041EA0B0153465A46084313D06F
:101FA000114653EA010019D0C8F14002504600F032
:101FB0004EF805460E4650465946424600F038F85F
:101FC000084305D0012004E020463946BDE8F08DE5
:101FD0000020054346EAE0762C4337430A98630520
:101FE000E40AA0EB08000022FD0A44EA47540A3044
:101FF00002D500200146E9E7010510196941DDE934
:10200000084500196941BDE8F04DA2E7064C074DAF
:1020100006E0E06840F0010394E8070098471034B8
:10202000AC42F6D3FEF788F8AC290008CC290008AA
:10203000202A04DB203A00FA02F100207047914088
:10204000C2F1200320FA03F3194390407047202A7D
:1020500004DB203A21FA02F00021704721FA02F352
:10206000D040C2F12002914008431946704702E077
:1020700008C8121F08C1002AFAD170477047002013
:1020800001E001C1121F002AFBD1704700000000CF
:1020900000000000002F00000000070007000014EF
:1020A0007F147F1400242A7F2A12006264081323FD
:1020B00000364955225000000503000000001C2294
:1020C0004100000041221C000014083E08140008D2
:1020D000083E0808000000A0600000080808080882
:1020E000000060600000002010080402003E51491A
:1020F000453E0000427F40000042615149460021B8
:1021000041454B31001814127F10002745454539D1
:10211000003C4A494930000171090503003649492C
:10212000493600064949291E0000363600000000E5
:102130005636000000081422410000141414141430
:1021400000004122140800020151090600324959D9
:10215000513E007C1211127C007F49494936003EF5
:1021600041414122007F4141221C007F49494941B0
:10217000007F09090901003E4149497A007F0808AA
:10218000087F0000417F4100002040413F01007F67
:1021900008142241007F40404040007F020C027F33
:1021A000007F0408107F003E4141413E007F090945
:1021B0000906003E4151215E007F0919294600466B
:1021C000494949310001017F0101003F4040403F42
:1021D000001F2040201F003F4038403F006314088C
:1021E0001463000708700807006151494543000067
:1021F0007F41410000552A552A55000041417F008A
:10220000000402010204004040404040000001027E
:102210000400002054545478007F48444438003867
:102220004444442000384444487F003854545418EF
:1022300000087E0901020018A4A4A47C007F080401
:1022400004780000447D4000004080847D00007FD1
:10225000102844000000417F4000007C04180478EE
:10226000007C0804047800384444443800FC2424EA
:1022700024180018242418FC007C080404080048D2
:102280005454542000043F444020003C4040207CF3
:10229000001C2040201C003C4030403C00442810E2
:1022A0002844001CA0A0A07C004464544C44141496
:1022B00014141414000000000000000000000000CE
:1022C00000000000000000F80000000000000033E3
:1022D0003000000000100C06100C0600000000008A
:1022E0000000000040C07840C0784000043F040473
:1022F0003F040400007088FC08300000001820FF34
:10230000211E0000F008F000E018000000211C036E
:102310001E211E0000F00888700000001E212324EA
:102320001927211010160E00000000000000000008
:1023300000000000000000E0180402000000000798
:102340001820400000020418E0000000004020189F
:1023500007000000404080F0804040000202010F72
:1023600001020200000000F0000000000101011F56
:1023700001010100000000000000000080B07000BA
:10238000000000000000000000000000000101014A
:1023900001010101000000000000000000303000D9
:1023A00000000000000000008060180400601806B3
:1023B0000100000000E010080810E000000F1020ED
:1023C00020100F00001010F8000000000020203F37
:1023D00020200000007008080888700000302824C1
:1023E0002221300000300888884830000018202062
:1023F00020110E000000C02010F800000007042487
:10240000243F240000F808888808080000192120CB
:1024100020110E0000E0108888180000000F112025
:1024200020110E0000380808C83808000000003FDE
:10243000000000000070880808887000001C22213D
:1024400021221C0000E010080810E00000003122EA
:1024500022110F00000000C0C0000000000000308A
:1024600030000000000000800000000000008060DC
:10247000000000000000804020100800000102045D
:102480000810200040404040404040000404040444
:102490000404040000081020408000000020100800
:1024A00004020100007048080808F0000000003035
:1024B00036010000C030C828E810E00007182724C3
:1024C00023140B000000C038E0000000203C230271
:1024D0000227382008F8888888700000203F2020D4
:1024E00020110E00C0300808080838000718202006
:1024F0002010080008F808080810E000203F2020FD
:1025000020100F0008F88888E8081000203F2020DD
:102510002320180008F88888E8081000203F2000D1
:1025200003000000C0300808083800000718202009
:10253000221E020008F808000008F808203F2101C8
:1025400001213F20000808F8080800000020203F73
:102550002020000000000808F8080800C0808080E3
:102560007F00000008F888C028180800203F2001DC
:102570002638200008F8080000000000203F202036
:102580002020300008F8F800F8F80800203F003F4D
:10259000003F200008F830C00008F808203F200065
:1025A00007183F00E01008080810E0000F10202076
:1025B00020100F0008F808080808F000203F21014B
:1025C00001010000E01008080810E0000F182424A2
:1025D00038504F0008F8888888887000203F200015
:1025E000030C3020007088080808380000382021CB
:1025F00021221C00180808F8080818000000203FD5
:102600002000000008F808000008F808001F20203B
:1026100020201F000878880000C83808000007380C
:102620000E010000F80800F80008F800033C07005D
:10263000073C0300081868808068180820302C03C5
:10264000032C30200838C800C83808000000203F9C
:102650002000000010080808C8380800203826218B
:1026600020201800000000FE020202000000007F8F
:1026700040404000000C30C000000000000000019D
:102680000638C00000020202FE0000000040404088
:102690007F000000000004020202040000000000AD
:1026A000000000000000000000000000808080802A
:1026B0008080808000020204000000000000000012
:1026C00000000000000080808080000000192422AB
:1026D00022223F2008F8008080000000003F1120E7
:1026E00020110E000000008080800000000E1120EC
:1026F00020201100000000808088F800000E1120CA
:1027000020103F200000808080800000001F2222D7
:1027100022221300008080F0888888180020203F43
:10272000202000000000808080808000006B949456
:102730009493600008F8008080800000203F210012
:1027400000203F2000809898000000000020203FDB
:1027500020200000000000809898000000C08080C9
:10276000807F000008F8000080808000203F240265
:102770002D302000000808F8000000000020203F55
:10278000202000008080808080808000203F20000A
:102790003F20003F8080008080800000203F21009B
:1027A00000203F200000808080800000001F20204B
:1027B00020201F00808000808000000080FFA1207A
:1027C00020110E000000008080808000000E11208B
:1027D00020A0FF80808080008080800020203F211A
:1027E00020000100000080808080800000332424CD
:1027F00024241900008080E0808000000000001F79
:10280000202000008080000000808000001F202029
:1028100020103F20808080000080808000010E30EA
:102820000806010080800080008080800F300C034B
:102830000C300F0000808000808080000020312E4E
:102840000E312000808080000080808080818E702A
:102850001806010000808080808080000021302CDC
:102860002221300000000000807C020200000000F5
:10287000003F404000000000FF000000000000009A
:10288000FF0000000002027C800000000040403F8A
:102890000000000000060101020204040000000024
:1028A000000000000000F888888888FF88888888F1
:1028B000F800000000000000000000000000000020
:1028C0000000000000001F080808087F888888882A
:1028D0009F80F000000000000000000000000000E9
:1028E000000000001060028C00FE02F2525A5652A4
:1028F00052F2020000000000000000000000000092
:102900000000000004047E41300F201349817F0144
:10291000091320000000000000000000000000007B
:1029200000000000404042CC00004A32222AF1213F
:10293000312D000000000000000000000000000039
:10294000000000000080403F408081BDA1A1BFA1E8
:10295000A1BD810000000000000000000000000098
:10296000000000001060028C00FE02F202FE00F87F
:1029700000FF000000000000000000000000000058
:102980000000000004047E018047300F102700473C
:10299000807F000000000000000000000000000038
:1029A0000000000020000028007F0000CC29000863
:1029B000000000202C0000006E200008F82900080C
:1029C0002C000020240400007E20000800A24A04FD
:1029D00000000000000000000102030406070809CF
:1029E00000000000010203040102030406070809B5
:0829F0000204060800000000CB
:0400000508000131BD
:00000001FF
